:020000040800F2
:10000000D8070020A1010008A9010008AB010008E1
:10001000AD010008AF010008B101000800000000B8
:10002000000000000000000000000000B301000814
:10003000B501000800000000B7010008B901000880
:10004000BB010008BB010008BB010008BB010008A0
:10005000BB010008BB010008BB010008BB01000890
:10006000BB010008BB010008BB0100086F010010C4
:10007000BB010008BB010008BB010008BB01000870
:10008000BB010008BB010008BB010008BB01000860
:10009000BB010008BB010008BB010008BB01000850
:1000A000BB010008BB010008BB010008BB01000840
:1000B000BB010008BB01000800000000BB010008F4
:1000C000BB0100080000000000000000BB010008A8
:1000D00000000000BB010008BB010008BB010008D4
:1000E000BB010008BB010008000000000000000088
:1000F0000000000000000000000000000000000000
:1001000000000000000000000000000000000000EF
:100110000000000000000000C5000010BB01000846
:1001200000000000000000000000000000000000CF
:1001300000000000000000000000000000000000BF
:10014000BB010008BB01000800000000BB01000863
:10015000BB010008BB010008BB010008BB0100088F
:10016000BB010008BB010008000000000000000007
:10017000000000000000000000000000000000007F
:1001800000000000BB010008DFF810D000F01AF8F2
:100190000048004735400008AFF30080D807002032
:1001A0000648804706480047FEE7FEE7FEE7FEE711
:1001B000FEE7FEE7FEE7FEE7FEE7FEE7793A000826
:1001C00089010008064C074D06E0E06840F0010395
:1001D00094E8070098471034AC42F6D3FFF7D8FFF5
:1001E000206500085065000840F28D6CC1F2000CDB
:1001F000604740F2476CC1F2000C604740F2355C4A
:10020000C1F2000C604740F2C75CC1F2000C6047CD
:1002100040F2B76CC1F2000C604740F2970CC1F29B
:10022000000C604740F2D15CC1F2000C604700292D
:10023000816814BF41F0010141F002018160704703
:10024000F0B4134A134B144C4FF0A04CB0F1A04F34
:1002500016BF9842DCF80853256805EA0202D1E986
:10026000005645EA0605D1E9026746EA0736097CE9
:1002700045EA060545EA012141EA0201B0F1A04F35
:1002800016BF9842CCF808132160F0BC70470000FC
:10029000E010FCFF00010050080700500029C16871
:1002A00014BF41F0010121F00101C1607047C26833
:1002B00022F00202C260C2681143C160704710B5EB
:1002C000B0F1A04F1CBFA0F1A041B1F5807114D0D6
:1002D000A0F1A041B1F580611EBFA0F1A041B1F530
:1002E000A06110BD0121480702F014FFBDE81040D5
:1002F00000214FF0005002F00DBF0121080702F06D
:1003000009FFBDE8104000214FF0805002F002BF0D
:1003100001460020896811F0004F18BF0120704786
:100320000246002012680A4218BF012070470000F0
:1003300010B4C268114B1A40D1E9003C43EA0C03E7
:10034000D1E902C44CEA040C43EA0C03D1F810C012
:1003500043EA0C03D1F814C043EA0C03D1F818C0E7
:1003600043EA0C031A43C260026B097F22F00F02BA
:10037000491E1143016310BC7047000007C0FFFD18
:1003800010B44FF01F0C052A0DD2046B02EB420291
:1003900052000CFA02FC24EA0C0C01FA02F24CEABC
:1003A000020202632FE00A2A0ED2446B521F02EBB4
:1003B000420252000CFA02FC24EA0C0C01FA02F28E
:1003C0004CEA020242631EE00F2A0ED2846B0A3A04
:1003D00002EB420252000CFA02FC24EA0C0C01FA75
:1003E00002F24CEA020282630DE0C46B0F3A02EBA8
:1003F000420252000CFA02FC24EA0C0C01FA02F24E
:100400004CEA0202C263092911D982690A3901EB57
:1004100041010722D0F818C08A402CEA020282610A
:10042000826903FA01F11143816110BC704742698E
:100430004A1E02EB42024FF0380C0CFA02F2D0F8DE
:1004400014C02CEA02024261426901EB410103FA45
:1004500001F11143416110BC7047826822F0804273
:1004600082608268114381607047816841F0004179
:1004700081607047816841F004018160704700210C
:10048000016041608160C160016141618161012160
:1004900001777047826822F04052826000298168AB
:1004A00014BF41F0805141F000518160704700005D
:1004B0002DE9F04F0121B1B0080702F01FFE012124
:1004C000084602F01BFE4FF4807002F007FE4FF06A
:1004D000A040FFF7F4FEDFF898A25046FFF7EFFECA
:1004E0006846FFF7CCFF08A8FFF7C9FF01214FF0CE
:1004F000A040FFF7CFFF00214FF0A040FFF7ADFF76
:100500004FF0A040FFF7B1FF4FF0A040FFF700FF12
:100510000028F9D100244FF002084FF40047CDF82D
:10052000A4802694CDE927478DF8A84026A94FF04E
:10053000A040FFF785FE4FF4E0790094CDE9014932
:100540007D11CDE903540826059406948DF81C60AE
:1005500069464FF0A040FFF7EBFE0122042311464D
:100560004FF0A040FFF70CFF0222042311464FF08A
:10057000A040FFF705FF0322042311464FF0A040DF
:10058000FFF7FEFE04231A4619464FF0A040FFF77E
:10059000F7FE0522042307211007FFF7F1FE0423CD
:1005A000062208214FF0A040FFF7EAFE04230722AD
:1005B0000B214FF0A040FFF7E3FE042308220C219B
:1005C0004FF0A040FFF7DCFE01214FF0A040FFF705
:1005D0002EFE01214FF0A040FFF7A2FE0028F8D028
:1005E00001214FF0A040FFF759FE02214FF0A0403B
:1005F000FFF75DFE4FF0A040FFF73CFF01215046A2
:10060000FFF748FF00215046FFF727FF5046FFF74E
:100610002CFF5046FFF77CFE0028FAD1CDE92C478D
:10062000CDF8B8802B948DF8BC402BA95046FFF72D
:1006300007FE0894CDE90949CDE90B540D940E94B9
:100640008DF83C6008A95046FFF772FE0122042392
:1006500011465046FFF794FE0222042311465046ED
:10066000FFF78EFE0322042311465046FFF788FE53
:1006700004231A4619465046FFF782FE052204233A
:1006800011465046FFF77CFE0622042311465046D1
:10069000FFF776FE042307220B215046FFF770FE7A
:1006A000042308220C215046FFF76AFE0121504620
:1006B000FFF7BDFD01215046FFF732FE0028F9D0BB
:1006C00001215046FFF7EAFD02215046FFF7EFFDFA
:1006D0005046FFF7CFFE274F384600F007F9DFF806
:1006E0009880404600F002F90121244803F0A8F860
:1006F000234810902348CDE911044FF08009CDE93B
:100700001449ADF84C604FF0200B4FF40050CDF879
:1007100060B0CDE919044FF4807ACDE916A510A98F
:10072000384600F081F918481B901848CDE91C04A0
:10073000ADF87860CDF88CB0CDE91F494FF440504A
:10074000CDE92404CDE921A51BA9404600F06CF9B0
:100750000121384600F0C0F80121404600F0BCF805
:1007600001220221384600F057F931B0BDE8F08F80
:1007700000010050080002404400024000030080D5
:1007800040000050D800002040010050E800002048
:1007900000F1804000F580300029C16914BF41F0AC
:1007A000010121F00101C161704700F1804010B4E6
:1007B00000F58030C269D1E9003C43EA0C03D1F86E
:1007C00008C00C6902F003024CEA040C43EA0C0373
:1007D000D1F80CC043EA0C03D1F814C0896943EA8C
:1007E0000C0319431143C16110BC704700B587B0B9
:1007F0005020009000204FF45051CDE901010390AA
:1008000004900590069069460C20FFF7CEFF012169
:100810000C20FFF7BDFF07B000BD012303FA01F173
:10082000002A026814BF114322EA010101607047E7
:10083000A0F1804110B5B1F5E8414FF0010109D0B8
:10084000880602F07FFCBDE8104000214FF0806078
:1008500002F078BC4FF0005002F074FCBDE810408C
:1008600000214FF0005002F06DBC10B4036840F658
:10087000FE7C0CFA01FC23EA0C03D2E900C44CEA2A
:10088000040CD2E9024222434CEA020202FA01F1CC
:100890001943016010BC704781B0084414300090C7
:1008A000026001B07047000010F0805F19BF02497C
:1008B000086002494860704704040240000002409A
:1008C00010F0805F19BF0249086002494860704714
:1008D00004040240000002400029016812BF41F0F8
:1008E00001014FF6FE7211400160704701684FF63A
:1008F000FE72114001600021016041608160C160B1
:100900002E4A2F49904204BF486840F00F0022D081
:100910002C4A904204BF486840F0F0001BD02A4A9D
:10092000904204BF486840F4706014D0274A904257
:1009300004BF486840F470400DD0254A904204BF7F
:10094000486840F4702006D0224A904204BF4868AC
:1009500040F4700001D1486070471F4A904204D1B2
:10096000486840F07060486070471C4A111F904210
:1009700004BF086840F00F0014D0194A904204BF29
:10098000086840F0F0000DD0164A904204BF086895
:1009900040F4706006D0144A904204BF086840F4E6
:1009A000704001D108607047104A904218BF7047EC
:1009B000086840F47020086070470000080002409A
:1009C000000002401C00024030000240440002408F
:1009D000580002406C0002408000024008040240BF
:1009E0001C04024030040240440402405804024007
:1009F000406880B270470000002110F0805F14BF93
:100A0000034A044A1268024218BF0121084670478F
:100A10000004024000000240002A026814BF114393
:100A200022EA01010160704710B40268D1F820C0C9
:100A30008B686FF30E1243EA0C03D1E904C44CEA4D
:100A4000040C43EA0C03D1F818C043EA0C03D1F8B4
:100A50001CC043EA0C03D1F824C043EA0C03D1F8CC
:100A600028C043EA0C031A4302608A8942600A687C
:100A700082604968C16010BC7047416070470000E7
:100A800010B5012184B0480702F050FB0D4C204600
:100A9000FFF7CEFE002160150091CDE90110039112
:100AA0006A4610212046FFF7E0FE01221021204671
:100AB000FFF7B3FE002211462046FFF7EDFE04B01B
:100AC00010BD00000074004000281ABF4FF0000C59
:100AD00006497047401E80B24FF47A72C1F800C0D8
:100AE0000B689342FCD30028F4D1704724140040D3
:100AF00006484FF48051807C10F0040F4FF0904076
:100B000001D000F068B800F064B80000F8000020E0
:100B1000F0B4002201254FF0030C00BF0C6805FA69
:100B200002F31C409C4236D10C79012C18BF022CD8
:100B300019D186684FEA42040CFA04F726EA070640
:100B400086604E7906FA04F4866844EA06048460F6
:100B5000848824EA0303838084888B7903FA02F370
:100B600044EA0303838004684FEA42030CFA03F665
:100B700024EA060404600C79076804FA03F444EAE2
:100B800007040460C46824EA0604CE7906FA03F375
:100B900043EA0403C36002F10102102ABED3F0BC91
:100BA00070474B07DB0E9A40C90800EB8100016AD1
:100BB0004FF00F0C0CFA03F399430162016A1143E1
:100BC0000162704702460020928A0A4218BF012043
:100BD000704701857047816170470000F0B50121C1
:100BE00083B0084602F0BAFA01214FF4FC0002F08B
:100BF00085FA00218DF8071003248DF80540FB4E7F
:100C000001208DF804400D468DF8061000906946CD
:100C10003046FFF77DFF8DF8075002208DF8054024
:100C20008DF8044000908DF8065069463046FFF775
:100C30006FFF8DF8075004208DF805408DF80440B3
:100C400000908DF8065069463046FFF761FF8DF839
:100C5000075001218DF805408DF8044000914FF0B8
:100C600090408DF806506946FFF752FF8DF8075007
:100C700002218DF805408DF8044000914FF090401E
:100C80008DF806506946FFF743FF8DF807500421A1
:100C90008DF805408DF8044000914FF090408DF89C
:100CA00006506946FFF734FF8DF8075008218DF88C
:100CB00005408DF8044000914FF090408DF80650AB
:100CC0006946FFF725FF8DF8075010218DF8054084
:100CD0008DF8044000914FF090408DF80650694621
:100CE000FFF716FF8DF8075080218DF805408DF82D
:100CF000044000914FF090408DF806506946FFF790
:100D000007FF8DF80750BA4F04208DF805408DF885
:100D1000044000908DF8065069463846FFF7F8FE0B
:100D20008DF8075002208DF805408DF804400090A2
:100D30008DF8065069463846FFF7EAFE8DF80750F1
:100D400001208DF805408DF8044000908DF8065084
:100D500069463846FFF7DCFE8DF8075010208DF805
:100D600005408DF8044000908DF8065069463046E5
:100D7000FFF7CEFE8DF8075020208DF805408DF846
:100D8000044000908DF8065069463046FFF7C0FEDB
:100D90008DF8075020218DF805408DF80440009112
:100DA0004FF090408DF806506946FFF7B1FE8DF880
:100DB000075040218DF805408DF8044000914FF018
:100DC00090408DF806506946FFF7A2FE02228DF88A
:100DD000072001208DF805404FF400518DF80400E4
:100DE00000918DF8065069463046FFF791FE0221CA
:100DF0008DF807104FF4804001228DF805408DF8E2
:100E0000042000908DF8065069463046FFF780FEBA
:100E100002208DF8070001218DF805408DF804109F
:100E20007A018DF80650694630460092FFF770FE51
:100E300002238DF80730790100228DF805408DF8E6
:100E4000042000914FF090408DF806506946FFF75E
:100E50005FFE02218DF8071008208DF805408DF8FF
:100E6000045000908DF8065069463846FFF750FE52
:100E700002218DF8071010208DF805408DF80450E0
:100E800000908DF8065069463846FFF741FE022172
:100E90008DF8071020208DF805408DF80450009043
:100EA0008DF8065069463846FFF732FE02218DF86C
:100EB000071040208DF805408DF8045000908DF803
:100EC000065069463046FFF723FE02218DF80710D1
:100ED00080208DF805408DF8045000908DF8065064
:100EE00069463046FFF714FE02218DF807100122F3
:100EF0008DF805404FF480538DF804204FF090405A
:100F00008DF8065069460093FFF702FE02228DF825
:100F1000072001218DF805404FF400608DF8041082
:100F200000908DF8065069463846FFF7F1FD022221
:100F30008DF8072001208DF8054008218DF8040068
:100F400000918DF8065069463046FFF7E1FD02201A
:100F50008DF8070001218DF80540264B8DF804100F
:100F600004228DF80650694618460092FFF7D0FD1E
:100F700002228DF8072001218DF805404FF48050A2
:100F80008DF8041000908DF8065069463046FFF742
:100F9000BFFD02208DF807008DF805408DF8040094
:100FA0004FF480728DF80650694638460092FFF77C
:100FB000AFFD02228DF807204FF400708DF8054038
:100FC0008DF8042000908DF8065069463846FFF7EA
:100FD0009FFD402102208DF807008DF805408DF817
:100FE000040000918DF80650694605E000080048AD
:100FF00000040048000C00483846FFF789FD022035
:101000008DF807008DF805408DF8040080228DF8DA
:101010000650694638460092FFF77AFD02228DF8A5
:1010200007204FF480608DF805408DF80420009073
:101030008DF8065069463046FFF76AFD02208DF8AC
:1010400007008DF805408DF804004FF400628DF81C
:101050000650694630460092FFF75AFD02218DF88E
:1010600007108DF805408DF804104FF480628DF85C
:101070000650694638460092FFF74AFD02208DF877
:1010800007008DF805408DF804004FF090424FF4B2
:1010900080738DF80650694610460093FFF738FDBF
:1010A00002208DF807008DF805408DF804004FF000
:1010B00090424FF400738DF8065069461046009335
:1010C000FFF726FD02228DF807208DF805404FF42A
:1010D00080638DF804204FF090408DF806506946EB
:1010E0000093FFF715FD02228DF807208DF80540CB
:1010F0004FF400638DF804204FF090408DF80650B7
:1011000069460093FFF704FD02218DF807108DF862
:1011100005408DF804104FF480528DF80650694652
:1011200038460092FFF7F4FC02208DF807008DF896
:1011300005408DF804004FF400528DF806506946C2
:1011400038460092FFF7E4FC02218DF807108DF875
:1011500005404FF480408DF8041000908DF8065043
:1011600069463846FFF7D4FC02218DF807108DF848
:1011700005408DF804107A018DF80650694638460E
:101180000092FFF7C5FC02218DF807108DF805408D
:101190008DF804104FF480728DF806506946304681
:1011A0000092FFF7B5FC02208DF807008DF805408E
:1011B0008DF804004FF400728DF8065069463046F1
:1011C0000092FFF7A5FC092208213846FFF7E9FC49
:1011D000092211463846FFF7E4FC0722062138466B
:1011E000FFF7DFFC072211463846FFF7DAFC07223B
:1011F0000A213046FFF7D5FC07220B213046FFF7C6
:10120000D0FC01220A213846FFF7CBFC0D22082131
:101210004FF09040FFF7C5FC09210D22C806FFF7EB
:10122000C0FC0D220A214FF09040FFF7BAFC0D22BE
:101230000B214FF09040FFF7B4FC0D220C213846F3
:10124000FFF7AFFC0D2211463846FFF7AAFC0D222E
:101250000E213846FFF7A5FC0D220F213846FFF777
:10126000A0FC032208213046FFF79BFC0322092142
:101270003046FFF796FC79013046FFF7AAFC4FF4A1
:1012800080413046FFF7A5FC03B04FF48051BDE824
:10129000F0404FF09040FFF79CBC70B50C460546FF
:1012A00089B2FFF78FFC0028A1B2284603D0BDE821
:1012B0007040FFF78EBCBDE87040FFF78CBCD0F8E3
:1012C0008033012906D002290CD0042913D0082923
:1012D00019D020E023F4E02113680B435168C0F8D3
:1012E000BC1318E023F46011136841EAC30351688A
:1012F000C0F8C0130FE023F0E071136841EA8313D4
:101300005168C0F8C41323F06061136841EA4323B5
:101310005168C0F8C813C0F880337047D0F8CC23A8
:10132000B1F1FF3F07BF22F0020141F0010122F0BD
:101330000D02114318BF41F00201C0F8CC137047F1
:10134000AFF3008010B4D0F8B033D0F8B4C3D0F805
:10135000B843202977D030DC042960D016DC01297D
:101360004DD002291CBF10BC704723F47C61136868
:1013700041EA8311536841EA8311936841EA83117A
:10138000C0F8B013126941EA821158E008295BD015
:1013900010291CBF10BC704723F07C51137841EA20
:1013A0000361137941EA0361137A41EA0361C0F8EA
:1013B000B013127C41EA026141E0402967D08029E4
:1013C0007DD0B1F5807F79D0B1F5007F1CBF10BC16
:1013D00070472CF0F851137841EA0361137941EA20
:1013E0000361137A127B41EA036124F0706343EADC
:1013F0000262C0F8B413C0F8B82310BC704723F0E1
:101400003F01136819435368194393681943C0F89F
:10141000B01312691143C0F8B01310BC704723F425
:101420007C31136841EA0331536841EA0331936820
:1014300041EA0331C0F8B013126941EA0231C0F841
:10144000B01310BC704710E023F47C01138841EA0C
:101450008341938841EA8341138941EA8341C0F87B
:10146000B013128A41EA8241E9E713682CF01F01A8
:101470001943536819439368D268194324F00F0342
:101480001A43C0F8B413C0F8B82310BC70471368EF
:101490002CF4F86141EA8311536841EA831193689F
:1014A000D26841EA831124F4707343EA8212C0F8CF
:1014B000B413C0F8B82310BC704700E015E01368FF
:1014C0002CF4F83141EA0331536841EA033193685F
:1014D000D26841EA033124F4704343EA0232C0F88F
:1014E000B413C0F8B82310BC704713882CF4F8016B
:1014F00041EA8341938841EA83411389928941EA11
:10150000834124F4701343EA8242C0F8B413C0F854
:10151000B82310BC704702460020D2F888230A4244
:1015200018BF0120704700EBC1104FF0000CD0F83D
:10153000E410202A1FD00CDC042A15D004DC012A78
:1015400012D0022A17D01EE0082A14D0102A0BD07D
:1015500019E0402A08D0802A0DD0B2F5807F03D050
:10156000B2F5007F07D00EE05A68C0F8BC209A6838
:10157000C0F8C02007E05A68C0F8C4209A68C0F8D4
:10158000C8204FF0100CFE2202FA0CF291431A68A8
:1015900002FA0CF21143DA6802FA0CF211431A69EA
:1015A00002FA0CF211435A6902FA0CF211439A69D9
:1015B00002FA0CF21143DA6902FA0CF21143C0F894
:1015C000E410704700EBC110D0F8801021F0070143
:1015D000C0F88010D0F8801093681943C0F88010CC
:1015E000D0F8801021F01801C0F88010D0F88010D9
:1015F000D3681943C0F880101168C0F8941051687E
:10160000C0F8981070470268114301607047FFF7F7
:101610008ABFC0F894137047C0F89813704710B48D
:1016200000EBC110D0F880C0D0F8E810D0F8E4305A
:10163000D0F8D44014682CF0400C44EA0C0CD46967
:101640002CF4802C44EA0C0C54692CF0FC7C44EA09
:101650000C0C147921F01F0104F01F04214394683D
:1016600021F000412143D46823F48073234314699B
:1016700023F4F05392692343C0F880C0C0F8E81007
:10168000C0F8E430C0F8D42010BC704770B51C46D8
:101690000E46054605292ED0FFF794FF05EBC6122E
:1016A000D2F88010D5F8A003236821F02001194357
:1016B000636821F400611943A36821F48061194330
:1016C000E36821F0C0611943236921F000611943E7
:1016D000636921F070411943E36921F40031B3F1EA
:1016E000005F08BF41F40031052E5BD2DFE806F051
:1016F0003D43494F5500286820F0070028602868BE
:10170000916808432860286820F01800286028683D
:10171000D16808432860106868615068A86129682A
:10172000D5F8A003226821F020011143626821F45A
:1017300000611143A26821F480611143E26821F045
:10174000C0611143226921F000611143626921F0F7
:10175000404141EA8201E26921F0005111439A6956
:1017600020F48030104329601EE0A36920F400308B
:1017700040EA430016E0A36920F4802040EA830099
:1017800010E0A36920F4002040EAC3000AE0A36946
:1017900020F4801040EA031004E0A36920F4001054
:1017A00040EA4310C2F88010C5F8A00370BD0000E5
:1017B000F0B5A5B04FF4805001F066FE0121480756
:1017C00001F0CCFC734D0C212846FFF7A7FD7248B1
:1017D000016841F0020101604FF480312846FFF7B3
:1017E0009AFE0028F8D00024089409944FF0006075
:1017F0000A94CDE90B408000CDE90E404FF434400F
:10180000CDE9180402200826CDE91A060D9408AB8C
:1018100018AA05212F462846FFF738FF08AB18AA5B
:1018200002213846FFF732FF08AB18AA03213846D9
:10183000FFF72CFF08AB18AA04213846FFF726FF54
:10184000102511941294A803CDE91650109480012C
:1018500015901394149410AA02213846FFF7DFFE66
:1018600010AA03213846FFF7DAFE10AA04213846F1
:10187000FFF7D5FECDE900452025CDE90254CDE99D
:10188000044506946B462A46022138460794FFF722
:10189000BEFE6B46802203213846FFF7B8FE6B463A
:1018A0002A0104213846FFF7B2FE4020CDE900406E
:1018B000CDE90264CDE9044506946B46102202216D
:1018C00038460794FFF7A3FE6B46402203213846B3
:1018D000FFF79DFE6B46EA0004213846FFF797FEAE
:1018E0000120CDE91E401C9020951D941CAA0221C8
:1018F0003846FFF725FD1120CDE9224022AA01211B
:101900003846FFF7DCFC25494FF4B4400860244812
:101910000421016023480160001D0160001D016079
:101920002148016021480160001D0160001D016027
:101930001F4801601F480160001D0160001D01601B
:1019400089033846FFF75FFEA9033846FFF75BFEC1
:10195000E9033846FFF757FE29043846FFF753FEE0
:1019600010213846FFF758FE20213846FFF754FE75
:1019700040213846FFF750FE80213846FFF74CFEE5
:10198000E9003846FFF748FE29013846FFF744FED4
:1019900025B0F0BD00740140CC7701401C740140BB
:1019A0009C750140A47501401C76014024760140DD
:1019B0009C760140A476014002494CF6CC40086078
:1019C000704700000030004002494AF6AA20086033
:1019D0007047000000300040014948607047000037
:1019E000003000400149886070470000003000402E
:1019F000014908607047000000300040214890ED28
:101A0000030A2148D0ED000A204830EE600A80ED3C
:101A1000000A1F4890ED030A1E48D0ED000A1E4838
:101A200030EE600A80ED000A1C4890ED030A1C4865
:101A3000D0ED000A1B4830EE600A80ED000A1A481B
:101A400090ED030A1948D0ED000A194830EE600AFB
:101A500080ED000A174890ED030A1748D0ED000A00
:101A6000164830EE600A80ED000A154890ED030A32
:101A70001448D0ED000A144830EE600A80ED000AE8
:101A8000704700004401002078000020C0000020C2
:101A9000540100207C000020C400002064010020CC
:101AA00080000020C8000020740100208400002075
:101AB000CC0000208401002088000020D0000020FD
:101AC000940100208C000020D400002070B56C48E8
:101AD0006C4C90ED000A6C4884ED000A04F5B47576
:101AE000D0ED000AA4F16800C4ED010A85ED050AF5
:101AF000C5ED060A90ED080A85ED080A90ED090A81
:101B000000F5E87085ED090AFEF76EFBD5ED031AC6
:101B100004F5A070C4ED021AD5ED040AC4ED030A61
:101B200090ED031A84ED071A90ED040A283884ED2D
:101B3000080A90ED032A30EEC00A84ED052A90EDE4
:101B4000042A04F1400084ED062A31EEC12A84ED16
:101B5000122A84ED1B0A94ED140AD4ED150AD4ED73
:101B6000131A20EE201A94ED160A01EE210A9FEDB9
:101B7000471A94ED113A22EE012AF0EE402A40EE87
:101B8000812A52EE032A42EEA10AC4ED150A84ED21
:101B9000160AB0EE600A80ED070AD0ED000AD0ED1B
:101BA000021A00EEA10A80ED080A94ED1D0AD4ED98
:101BB0001E0AD4ED1C1AD4ED1B2A20EE202A94ED27
:101BC0001F0A243002EE210AB0EE402A00EE812ADC
:101BD00022EE811AD4ED1A2A11EE222A42EE210AAF
:101BE000C4ED1E0A84ED1F0AB0EE600A80ED070AFC
:101BF000D0ED000A90ED021A00EE810A80ED080A8D
:101C0000D4ED180A94ED281A224870EE810A94ED5A
:101C1000361A70EE811A94ED051ADFED1D0A41EEB9
:101C2000201AB0EE001A21EE812AD0ED001AC2EE81
:101C3000212A04F5C87504F5C870C5ED032A94ED92
:101C40002F2A30EE020A94ED3D2A30EE020A94ED7E
:101C5000062A02EE200A20EE010AC0EE210AC5ED96
:101C6000040AFEF7C6FA95ED000A84ED3F0A95EDE9
:101C7000010A84ED400A95ED020A84ED410A70BD27
:101C80006C0000201C02002070000020F90FC940E9
:101C9000CDCC4C3F740000204748D0ED121AC0ED67
:101CA000231A90ED1B0A80ED2A0A90ED250A90ED8B
:101CB000261A90ED242AD0ED270A20EE010A90ED95
:101CC000223A40EE020A9FED3D0A61EE801AF0EEE4
:101CD000602A41EE002A51EE832A02EE821A80ED3C
:101CE000261AC0ED270A80ED281AD0ED2C0A90EDB7
:101CF0002D1AD0ED2B1AD0ED2A2A20EE812AD0ED14
:101D00002E0A62EE802A90ED293A42EE210AB0EEC8
:101D1000602A01EE002A12EE832A02EE211A80EDDB
:101D20002D1AC0ED2E0A80ED2F1A90ED122A80EDAB
:101D3000312AD0ED1B0A22EE002AC0ED380AD0ED80
:101D4000330A90ED341AD0ED321A90ED303A60EE4D
:101D5000812AD0ED350A42EEA10AF0EE602A41EE6A
:101D6000002A52EE032A02EEA11A80ED341AC0EDC9
:101D7000350A80ED361AD0ED3A0A90ED3B1AD0EDD7
:101D8000391AD0ED382A20EE812AD0ED3C0A42EEF5
:101D9000210AB0EE602A01EE002A22EE800AD0ED80
:101DA000372A10EE222A02EE211A80ED3B1AC0EDEE
:101DB0003C0A80ED3D1A70471C020020F90FC94013
:101DC0000E489FED0D0A80ED260A80ED270A80ED72
:101DD000280A80ED2D0A80ED2E0A80ED2F0A80ED75
:101DE000340A80ED350A80ED360A80ED3B0A80ED3D
:101DF0003C0A80ED3D0A7047000000001C020020F4
:101E000011489FED100A002180ED150A80ED160A99
:101E100080ED170A80ED180A80ED1E0A80ED1F0A7A
:101E200080ED200A80ED210A80ED3F0A80ED400A16
:101E300080ED410AC0F80811C0F80C11C0F810116B
:101E400070470000000000001C0200201B48F6EE56
:101E5000080A9FED1B1AC0ED100A9FED1A0A80EDCB
:101E6000111ADFED191A80ED130AC0ED141AC0ED36
:101E7000190A80ED1A1A80ED1C0AC0ED1D1AF3EE46
:101E8000040AC0ED220A9FED111A80ED240A80EDAC
:101E9000251AC0ED290A80ED2B0A80ED2C1AC0ED21
:101EA000300A9FED0B1A80ED320A80ED331AC0ED37
:101EB000370A80ED390A80ED3A1A70471C0200207B
:101EC0000000C842ACC5273840C4C0475299164AE2
:101ED0004196934A2DE9F047694CD4ED0A0A9FEDEB
:101EE000691AF1EE041A94ED100A40EE811A0027E7
:101EF000F4EEC01AF1EE10FA3CBF0120208109D3A4
:101F0000F0EE081A40EE811AF4EEC01AF1EE10FA63
:101F1000C8BF2781DFF87081DFF870915C4E98F8B8
:101F200012005C4D10F0010F7ED02088012801BF07
:101F3000B5F8140100282089012875D1B5F81601DB
:101F400010F0040F7BD010F0010F6FD04FF48041E0
:101F50004846FEF740FE9FED500A5048A0F10801A8
:101F6000D0ED000A30EE801AD1ED000AF4EEC10A7D
:101F7000F1EE10FAC8BF80ED001AD0ED001AB0EEF5
:101F8000401A31EEC11AB4EEE01AF1EE10FACCBFED
:101F900080ED001AB0EE611AF0EE401A71EE211ACF
:101FA000F4EEE01AF1EE10FA0ADBF0EE401A31EE30
:101FB000611AB4EEE01AF1EE10FA98BFC0ED000A13
:101FC0003748A0F10801D0ED000A30EE801AD1EDBB
:101FD000000AB4EEE01AF1EE10FA34BF80ED001AF8
:101FE00090ED001A31EE401AB4EEE01AF1EE10FA5C
:101FF000CCBF80ED001A90ED001A71EE001AF4EEDD
:10200000E01AF1EE10FA08DB31EE400AB4EEE00A15
:10201000F1EE10FA98BFC0ED000A3068E16D401A89
:10202000800A6080BDE8F08709E0FFE700F07EF8F5
:10203000B5F8160140F00100A5F81601EDE700F033
:1020400033F8B5F816014FF4804120F00100A5F8EF
:1020500016014846FEF7BDFDFFF7D2FEFFF7B0FEC2
:102060009FED100A84ED0E0A84ED0F0A98F8120015
:10207000C0F3C00020803068E0656780BDE8F0876D
:102080003400002081043540F8000020000800489A
:10209000300000201C0200200AD7A33C6C00002066
:1020A000700000200000000010B5194C10212046DF
:1020B000FFF7B2FA20212046FFF7AEFA4021204672
:1020C000FFF7AAFA80212046FFF7A6FAA1152046BD
:1020D000FFF7A2FA61152046FFF79EFA0D4904208A
:1020E00008600D490860091D0860091D08600B495A
:1020F00008600B490860091D0860091D086009494E
:10210000086009490860091D0860091D086010BDC4
:10211000007401409C750140A47501401C7601408B
:10212000247601409C760140A476014010B50D4C08
:1021300010212046FFF76DFA20212046FFF769FAAB
:1021400040212046FFF765FA80212046FFF761FA1B
:10215000A1152046FFF75DFA61152046BDE8104045
:10216000FFF757BA0074014044494548424A4B8939
:10217000B0F800C063445B0800EE103A1380D2ED63
:10218000020AB8EE400A92ED011A40EE010AC2EDD1
:10219000030A0B89B0F802C0103263445B0800EEFA
:1021A000103A1380D2ED020AB8EE400A92ED011AFD
:1021B000344B40EE010AC2ED030A5B89B0F804C05B
:1021C000103263445B0800EE103A1380D2ED020A2D
:1021D000B8EE400A92ED011A40EE010AC2ED030A80
:1021E0000B88B0F806C0103263445B0800EE103A6A
:1021F0001380D2ED020AB8EE400A92ED011A40EEC9
:10220000010AC2ED030A4B88B0F808C010326344DB
:102210005B0800EE103A1380D2ED020AB8EE400AD5
:1022200092ED011A40EE010AC2ED030A8B88B0F864
:102230000AC0103263445B0800EE103A1380D2EDFE
:10224000020AB8EE400A92ED011A40EE010AC2ED10
:10225000030AC988808910320844400800EE100A39
:102260001080D2ED020AB8EE400A92ED011A40EE5B
:10227000010AC2ED030A704744010020D800002083
:10228000AE000020E8000020084909484A89028081
:102290000A894280074A528982800A88C2804A8815
:1022A00002818A884281C98881817047D8000020D4
:1022B000AE000020E80000203348B0F8161141F0CD
:1022C00002023249A0F8162112F0010F04BF22F0D9
:1022D0000802A0F8162129D091ED0E0AD1ED080AC6
:1022E00030EE600AB5EEC00AF1EE10FA38BFB1EE7A
:1022F000400A10EE10CA264B9C4513DA91ED0F0AE6
:10230000D1ED090A30EE600AB5EEC00AF1EE10FA1E
:1023100038BFB1EE400A10EE10CA9C45B8BF42F07B
:10232000080201DB22F00802A0F816210B88002227
:10233000012B01D0CA801FE091ED0B0ADFED150AD9
:1023400030EE600AB5EEC00AF1EE10FA38BFB1EE19
:10235000400A10EE103ADFF840C06345EADACA8856
:10236000521C92B2CA800A2A06D30A22CA80B0F846
:10237000161141F0040103E0B0F8161121F0040138
:10238000A0F81611704700001C0200203400002045
:10239000CDCCCC3D00004842CDCC4C3E10B545F2F2
:1023A0005550FFF725FB0620FFF716FB4FF49C70F6
:1023B000FFF718FBFFF708FBBDE81040FFF7FCBA7A
:1023C0004FF400510148FEF768BF000000080048C4
:1023D00010B4C27801784FF00F0C012322B3184AD1
:1023E000126801F1E02102F4E062C2F5E062120A33
:1023F000C2F104042CFA02F290F801C00CFA04FCB9
:102400008478224042EA0C02120181F8002400780C
:1024100000F01F0103FA01F14009800000F1E02003
:10242000C0F8001110BC704701F01F0003FA00F063
:102430004909890001F1E021C1F8800110BC704711
:102440000CED00E0034940F0FD7040F08060086052
:10245000704700000CED00E0002B08BF7047F8B596
:10246000064614460D464FF44070FFF7EBFF8DF81B
:10247000006000208DF802008DF801508DF80340B7
:102480006846FFF7A5FFF8BD2DE9F04FD94C83B0A2
:10249000D4ED100AF5EEC00AB1EE600AF1EE10FAC2
:1024A00034BFB0EE401AB0EE601ABCEEC11AF5EEC1
:1024B000C00A11EE100AF1EE10FA1FFA80F838BFC8
:1024C000F0EE400A00EE108AB8EE400A30EEC00A84
:1024D0009FEDC91AD4ED0A0A20EE010AF5EEC00AF2
:1024E000BCEEC00A10EE100AB1EE600AF1EE10FA6E
:1024F0001FFA80FB34BFF0EE401AF0EE601AFCEEDB
:10250000E11AF5EEC00A11EE900AF1EE10FA87B268
:1025100038BFF0EE400A00EE107AB8EE400A30EE16
:10252000C00A20EE010ABCEEC00A10EE100A80B20A
:102530000190D4ED080AF5EEC00AB1EE600AF1EEA2
:1025400010FA34BFF0EE401AF0EE601AFCEEE11A19
:10255000F5EEC00A11EE900AF1EE10FA86B238BF1D
:10256000F0EE400A00EE106AB8EE400A30EEC00A03
:10257000D4ED090A20EE010AF5EEC00ABCEEC00A4D
:1025800010EE100AB1EE600AF1EE10FA1FFA80FAAE
:1025900034BFF0EE401AF0EE601AFCEEE11AF5EEF0
:1025A000C00A11EE900AF1EE10FA85B238BFF0EED3
:1025B000400A00EE105A00211023B8EE400A8FA204
:1025C00030EEC00A20EE010ABCEEC00A10EE100A7E
:1025D0001FFA80F9084600F071FA86484FF01003A0
:1025E00090ED100AB5EEC00AF1EE10FA05D285A200
:1025F0000021282000F062FA04E083A200212820B4
:1026000000F05CFA1024032342460021302000949D
:1026100000F002FA10237DA20021482000F04EFABB
:10262000BBF10A0F00940BD2002201231146502067
:1026300000F0F2F9012300215A465820009403E0EB
:1026400002235A460021502000F0E6F9102370A220
:102650000021602000F032FA10236EA20221002037
:1026600000F02CFADFF88C814FF0100398ED0A0A85
:10267000B5EEC00AF1EE10FA05D262A202212820BE
:1026800000F01CFA04E060A20221282000F016FAF3
:1026900003233A4602213020009400F0BDF91023B4
:1026A0005AA20221482000F009FA019800940A2851
:1026B0000BD2012300220221502000F0ADF90123AA
:1026C000022100945820019A03E002230246194691
:1026D000502000F0A1F910234DA20221602000F04B
:1026E000EDF910234DA20421002000F0E7F998ED48
:1026F000080A4FF01003B5EEC00AF1EE10FA05D249
:1027000040A20421282000F0D9F904E03EA20421CF
:10271000282000F0D3F9032332460421302000940E
:1027200000F07AF9102339A20421482000F0C6F9FC
:10273000BAF10A0F00940BD2012300220421502089
:1027400000F06AF90123042152465820009403E066
:10275000022352460421502000F05EF9102331A2DA
:102760000421602000F0AAF910232FA206210020E6
:1027700000F0A4F998ED090A4FF01003B5EEC00A75
:10278000F1EE10FA05D21FA20621282000F096F9DA
:1027900004E01DA20621282000F090F903232A4618
:1027A00006213020009400F037F9102317A20621EB
:1027B000482000F083F9B9F10A0F00940BD20123ED
:1027C00000220621502000F027F9012306214A4665
:1027D0005820009403E002234A460621502000F0CE
:1027E0001BF903B01023BDE8F04F06210DA26020B5
:1027F00000F064B9340000200000C8425664633A17
:10280000000000002D000000200000002E0000004D
:10281000560000005661633A000000004964203A07
:1028200000000000410000004971203A0000000053
:1028300070B50021AE2000F061F90021084600F0DB
:102840005DF90021102000F059F90021402000F02E
:1028500055F90021B02000F051F90021812000F04D
:102860004DF90021FF2000F049F90021A12000F0DE
:1028700045F90021A62000F041F90021A82000F030
:102880003DF900213F2000F039F90021C82000F077
:1028900035F90021D32000F031F90021084600F07D
:1028A0002DF90021D52000F029F90021802000F029
:1028B00025F90021D82000F021F90021052000F0A1
:1028C0001DF90021D92000F019F90021F12000F0B4
:1028D00015F90021DA2000F011F90021122000F092
:1028E0000DF90021DB2000F009F90021302000F073
:1028F00005F900218D2000F001F90021142000F0DD
:10290000FDF80021AF2000F0F9F80025002105F1C5
:10291000B00000F0F3F80021084600F0EFF80021C5
:10292000102000F0EBF800240121002000F0E6F870
:10293000601CC4B2802CF7D3681CC5B2082DE5D347
:1029400070BD00002DE9F04700240E460546A2F1B7
:1029500020077F2802D90025881CC6B2102B4FF013
:10296000000106F1B0001BD000F0C8F8280940F0C3
:102970001000002100F0C2F805F00F00002100F067
:10298000BDF8234907EB470001EBC005012155F8CD
:10299000240000F0B3F8641C062CF7D3BDE8F087E0
:1029A00000F0ACF84FEA151949F01000002100F0D2
:1029B000A5F805F00F00002100F0A0F8DFF8548022
:1029C00004EB0710012158F8200000F097F8641C70
:1029D000082CF5D306F1B100002100F08FF849F082
:1029E0001000002100F08AF805F00F00002100F02F
:1029F00085F8002404EB071008EB80000121006A31
:102A000000F07CF8641C082CF4D3BDE8F0870000CB
:102A1000B8400008584900082DE9FF5F4FF0000654
:102A20001D0091468046344604BF04B0BDE8F09FC7
:102A3000DFF884B00E98A5F1010A4708281B401E54
:102A40000A22C0B20121031EA0F101000ADD10F02C
:102A5000010F08BF0A21401C401003D051435143CD
:102A6000401EFBD1B9FBF1F0ABFB0021C908494284
:102A700001EB810100EB41002EB9544503DA002837
:102A800018BF01260FD03030C2B207FB0480C0B29D
:102A90000E9B0199FFF756FF601CC4B2AC42CDD328
:102AA00004B0BDE8F09F07FB0480C0B220220E9B5B
:102AB0000199FFF747FFEFE7CDCCCCCC2DE9F041F2
:102AC000054610780024984616460F46002808BF91
:102AD000BDE8F081325D434639462846FFF732FFB4
:102AE00005F10800C5B2782D02D90025B81CC7B27F
:102AF000641C305D0028EDD1BDE8F08170B5454D16
:102B0000454C002906464FF00401284640D0FEF708
:102B100062F84FF480512046FEF75DF84FF4805183
:102B20002046FEF756F804212846FEF752F8782092
:102B300001F046FA04212846FEF74DF80421284604
:102B4000FEF747F8402001F03BFA04212846FEF743
:102B500042F804212846FEF73CF8F0B201F030FAC2
:102B600004212846FEF737F804212846FEF731F8FD
:102B700004212846FEF72FF84FF480512046FEF737
:102B800028F82046BDE870404FF48051FEF723B886
:102B9000FEF721F84FF480512046FEF71CF84FF461
:102BA00080512046FEF715F804212846FEF711F85B
:102BB000782001F005FA04212846FEF70CF80421DC
:102BC0002846FEF706F8002001F0FAF9042128460D
:102BD000FEF701F804212846FDF7FBFFF0B201F0F3
:102BE000EFF904212846FDF7F6FF04212846FDF7FA
:102BF000F0FF04212846FDF7EEFF4FF480512046F8
:102C0000FDF7E7FF2046BDE870404FF48051FDF727
:102C1000E2BF0000000C00480008004810B5624800
:102C20002DED028B0088DFED618A614C00287CD09D
:102C300004F5C070D0ED030AC4ED0A0A90ED040A51
:102C400004F1280084ED0B0A9FED5A0A94ED101A46
:102C500070EEC10A94ED0F1A41EE400AC4ED0C0A61
:102C600094ED0E1A9FED548A00EE881A84ED0E1A28
:102C7000DFED521A61EE210AC4ED100AD4ED0B0A01
:102C800094ED111A70EEC10A90ED041A41EE000A9B
:102C9000C0ED030A90ED050A00EE880A80ED050AF2
:102CA00020EE210A80ED070AD4ED100AC4ED030AD4
:102CB00084ED040A94ED190AFDF7A0FA84ED080AE0
:102CC00094ED190AFDF79FFA84ED090A2046FDF7F5
:102CD0009FFAD4ED061AB3EE041AC4ED141A94ED5B
:102CE000150AD4ED122AFBEE040A31EEC02A94ED47
:102CF000170A04F1480002EE820A94ED132A02EE4C
:102D0000210A84ED160AB4EEC10AF1EE10FAC8BF2A
:102D100080ED041A08DCB4EEE00AF1EE10FAC8BF48
:102D2000F0EE400AC0ED040A00E024E090ED020A53
:102D300080ED030A90ED040A80ED050A94ED160A71
:102D400070EE280AC4ED180A94ED190A00EE880AFC
:102D500010EE100A84ED190AB0F17E5FBCBFBDEC25
:102D6000028B10BDF7EE000A30EE600A84ED190AFE
:102D7000BDEC028B10BD9FED120A84ED140A84EDA8
:102D8000150A84ED160A84ED170AC4ED188A84ED3D
:102D9000190A84ED0E0A84ED0F0A84ED100A84ED01
:102DA000110ABDEC028B10BD340000200000484227
:102DB000B40100207B149D43ACC52738F853FB4178
:102DC0000000000007489FED060A80ED120A9FED03
:102DD000060A80ED130A9FED050A80ED180A704778
:102DE0003333B741B4010020EA01F33C000048420C
:102DF0002DE9F047A44FDFF89482DFF89492A54CB8
:102E0000A54D4FF000062DED068BB87C10F0010F9C
:102E100000F0FF80A14890ED000AFDF7FEF9A04800
:102E2000F0EE40AA90ED000AFDF7F7F99D48B0EEEC
:102E300040AA90ED000AFDF7F0F99B48F0EE409AA9
:102E400090ED000AFDF7E9F99848B0EE409A90ED50
:102E5000000AFDF7E2F99648F0EE408A90ED000A8C
:102E6000FDF7DBF99348B0EE408A90ED030AFDF7D9
:102E7000D4F9DFED910AB4EEE00AF1EE10FA05DDC7
:102E8000B4F8140140F00100A4F81401DFED8B0A3E
:102E90008148B4EEE00A0188F1EE10FAC8BF491C7F
:102EA00003DC002918BF491E0AD0018088B2B0F5A2
:102EB0007A7F05D9B4F8140140F00200A4F8140197
:102EC0009FED7F0AF4EEC0AAF1EE10FA05DDB4F82A
:102ED000140140F01000A4F81401B4EEC0AAF1EE01
:102EE00010FA05DDB4F8140140F01000A4F8140144
:102EF000F4EEC09AF1EE10FA05DDB4F8140140F0DA
:102F00001000A4F814017049B3EE090A6D48D1ED20
:102F1000000A0188F4EEC00AF1EE10FAC8BF491C9D
:102F200003DC002918BF491E0AD0018088B2B0F521
:102F30007A7F05D9B4F8140140F02000A4F81401F8
:102F40009FED620AB4EEC09AF1EE10FA05DDB4F816
:102F5000140140F04000A4F81401F4EEC08AF1EE30
:102F600010FA05DDB4F8140140F04000A4F8140193
:102F7000B4EEC08AF1EE10FA05DDB4F8140140F0A9
:102F80004000A4F814015349B1EE0E0A5048D1EDA7
:102F9000000A0188F4EEC00AF1EE10FAC8BF491C1D
:102FA00003DC002918BF491E0AD0018088B2B0F5A1
:102FB0007A7F05D9B4F8140140F08000A4F8140118
:102FC00094F8160110F0010F1ED0B8F80000B0F50B
:102FD000967F05D9B4F8140140F48070A4F8140168
:102FE000B9F80000E98988420ED168B1A889C828DB
:102FF00021BFAE81B4F8140140F40070A4F81401AC
:103000003CBF401CA88100E0AE81B9F80000E88117
:1030100003E0AE81A9F80060EE81B4F81401DFF896
:10302000B89058B1FFF740F84FF400414846FDF71B
:10303000D2FD0121880700F09FFD09E04FF4004117
:103040004846FDF7C6FD00214FF0804000F094FD9A
:1030500029896981788A0129C0F340122A8107BF32
:10306000002A10F0010FBDEC068BBDE8F087A4F834
:1030700014612E806E80AE80EE80A8F80060BDECFA
:10308000068BBDE8F0870000F80000203800002023
:10309000BC0000201C0200209E000020C000002078
:1030A000C4000020C8000020CC000020D000002078
:1030B000D4000020A40100200000964200009242AB
:1030C00015AE2942A200002048000020713D624157
:1030D000A40000204C000020000800480649020F10
:1030E000CA6A14BF22F4785222F4F872CA62CA6A19
:1030F0001043C8627047000000100240044A0029D3
:10310000516914BF084321EA000050617047000074
:1031100000100240044A0029916A14BF084321EAC2
:10312000000090627047000000100240044A00292D
:10313000D16914BF084321EA0000D0617047000044
:1031400000100240044A0029116914BF084321EA13
:10315000000010617047000000100240044A00297E
:10316000916914BF084321EA000090617047000094
:1031700000100240044A0029D16814BF084321EA24
:103180000000D06070470000001002402DE9F00FF1
:10319000B74D00216A68B74E12F00C0306D0B64A4C
:1031A000042B08BF02601BD0082B01D0066017E07B
:1031B00069686B6801F470114FF0020C13F4803FE2
:1031C0000CEB914104BFAD4A514308D0EB6A03F0C8
:1031D0000F0303F10103B2FBF3F202FB01F1016003
:1031E0006A684FF00F0303EA1212A54B13F802C0EE
:1031F000026822FA0CF444606F684FF0070808EA8E
:103200001727DF5D24FA07F78760D5F8049008EAEE
:10321000D92813F8083024FA03F4C460D5F82C80B8
:103220004FF01F0A0AEA1818DFF8589208F00F0B3F
:1032300039F81BB018F0100F17BFBBF1000F026177
:10324000B1FBFBF8C0F81080D5F82C800AEA5828AA
:1032500008F00F0A39F81A9018F0100F17BFB9F1DB
:10326000000F4261B1FBF9F8C0F81480D5F8308046
:1032700018F0100F0CBF86618261D5F8308018F00D
:10328000200F0CBFC661C261D5F8308018F0400F26
:103290000CBF06620262D5F8308018F4807F07D038
:1032A0008A4202BF63454FEA4108C0F8248000D03B
:1032B0004462D5F8308018F4805F07D08A4202BF9C
:1032C00063454FEA4108C0F8288000D08462D5F8F1
:1032D000308018F4007F07D08A4202BF63454FEA6E
:1032E0004108C0F82C8000D0C462D5F8308018F4B2
:1032F000806F07D08A4202BF63454FEA4108C0F899
:10330000448000D04464D5F8308018F4006F07D0B2
:103310008A4202BF63454FEA4108C0F8488000D0A6
:103320008464D5F8308018F4005F05D08A4202BF6B
:1033300063454900C16400D08464296B11F0030F18
:103340004FF4004108BF076314D02B6B03F0030355
:10335000012B08BF02630DD02B6B03F00303022B7C
:1033600008BF016306D02B6B4FF0030C3CEA03034C
:1033700008BF06632B6B13F4403F08BF476316D0AA
:103380002B6B03F44033B3F5803F08BF42630ED08C
:103390002B6B03F44033B3F5003F08BF416306D005
:1033A0002B6B4FF4403C3CEA030308BF46632B6B96
:1033B00013F4402F08BF876316D02B6B03F4402310
:1033C000B3F5802F08BF82630ED02B6B03F440232C
:1033D000B3F5002F08BF816306D02B6B4FF4402C50
:1033E0003CEA030308BF86632B6B13F4401F08BF3E
:1033F000C76316D02B6B03F44013B3F5801F08BFCF
:10340000C2630ED02B6B03F44013B3F5001F08BF4B
:10341000C16306D02B6B4FF4401C3CEA030308BF8A
:10342000C6632B6B13F4400F02BF0764BDE8F00FB7
:1034300070472B6B03F44003B3F5800F02BF0264A7
:10344000BDE8F00F70472A6B02F44002B2F5000F9E
:1034500002BF0164BDE8F00F7047296B4FF44002D2
:1034600032EA010108BF0664BDE8F00F70470000B2
:103470000010024000127A00001BB70000093D0056
:10348000000000201000002004490A6B22F4805242
:103490000A630A6B10430863704700000010024083
:1034A00070B52B4D4FF40070FDF7A6FA294E002899
:1034B0004AD02948FDF79CFA162841D1AC46BCF801
:1034C0000000A0F52A41FF393AD100206A882C4635
:1034D0005FF0040134F8043F504062885840491EB0
:1034E000F8D1698A4840BCF81410814228D11B48A1
:1034F000DCF8001042F6F8220160DCF804104160AC
:10350000DCF808108160DCF80C10C160DCF81010E9
:103510000161BCF814108182038942F22831934280
:1035200028BF028102D2994228BF01814389934278
:1035300028BF428102D2994228BF41810020B08039
:103540004FF40070FDF7B0F9B088401CB08070BD3A
:103550000E0100203400002030000240F80000205E
:1035600010B5234C2DED028B20899FED238A00EEB0
:10357000100ADFED208A6089F8EE400AB0EE480AB2
:10358000B0EE481A10EEA80A00EE900AF8EE600AB3
:1035900020EE000A10EEA81A00EE900AF8EE601A6B
:1035A000F0EE480A51EEA80A01EE200AFCF73AFEB6
:1035B00010EE100A11498842A4BFBDEC028B10BD69
:1035C000208900EE100A0E48F8EE400AB0EE480AD4
:1035D00010EEA80A80ED0C0A618900EE101AB8EE10
:1035E000400A10EE288A80ED0D8ABDEC028B10BDDA
:1035F000F80000200AD7233C0000C8420000204108
:103600003400002070B577482DED028B90ED030A51
:10361000D0ED040A20EE000A00EEA00AFCF702FE3C
:10362000DFED710A714C724D20EE200A284684EDC0
:10363000050A95ED030AD0ED040A20EE000A00EE1B
:10364000A00AFCF7EFFDDFED680A204620EE200A15
:1036500080ED060A9FED678A143090ED000ADFEDD9
:10366000668A143020EE280AD0ED000A00EE880A9F
:1036700080ED000A61489FED620AD0ED030A9FEDDC
:10368000611A04F1400060EE810A90ED001A41EEEB
:10369000000AC0ED000A5C489FED5C0A90ED031A39
:1036A000DFED5B0A04F1440021EE201AD0ED001A90
:1036B00001EE801A80ED001A564890ED031A04F1CD
:1036C000480021EE201AD0ED001A01EE801A80ED9C
:1036D000001A514890ED031A04F14C0021EE201A13
:1036E000D0ED001A01EE801A80ED001A4B4890EDE3
:1036F000031A04F1500021EE201AD0ED001A01EE59
:10370000801A80ED001A464890ED031A04F1540027
:1037100021EE201AD0ED001A01EE801A80ED001A79
:10372000404890ED031A04F1580061EE200A90ED34
:10373000001A41EE000A9FED3E1A9FED3C0AC0EDD3
:10374000000A3948D0ED180A04F12C0060EE810A15
:1037500090ED001A41EE000AC0ED000A354890F8DD
:10376000160110F0010F2DD0334890ED030AD0ED73
:10377000040A20EE000A00EEA00AFCF753FD84EDD7
:10378000070A2846FCF744FDD5ED050A04F12000A0
:10379000C4ED030A95ED060A60EEA80A84ED040A5A
:1037A00090ED001A20EE280A41EE080AC0ED000A4A
:1037B000001DD0ED000A00EE880A80ED000ABDEC85
:1037C000028B70BD9FED1D0A84ED070A84ED030A8C
:1037D00084ED040A84ED080A84ED090ABDEC028B2D
:1037E00070BD0000340300208104353F3400002008
:1037F0005C030020A4707D3F00D7233CA40100207F
:103800006666663FD0CCCC3D4401002072F97F3F14
:1038100000C0D13854010020640100207401002050
:103820008401002094010020B401002048E17A3F87
:1038300000D7A33C1C020020AC03002000000000C5
:10384000094A10F0004F07D00029116D0CBF21EA82
:1038500000000843106570470029116814BF084331
:1038600021EA0000106070470000014018489FEDF9
:10387000160ADFED160A80ED010AC0ED020A1030CB
:103880009FED151A80ED010AC0ED020A103080ED9F
:10389000010AC0ED020ADFED0F0A1030C0ED010A87
:1038A00080ED021A1030C0ED010A80ED021A1030CE
:1038B000C0ED010A80ED021A1030DFED080A80ED3C
:1038C000010AC0ED020A7047740C483D5879C7C21E
:1038D00044010020AAB95CBC0000CC4100000000FB
:1038E00070B5494D4AF6FF21284601804749D1ED80
:1038F000100AF5EEC00AF1EE10FA38BFF1EE600AD8
:103900009FED430A60EE800AFCEEE00A10EE902A7A
:1039100092B24280D1ED0A0A60EE800AFCEEE00A23
:1039200010EE903A8380D1ED080A70EE800A60EEC6
:10393000800AFCEEE00A10EE903AC380D1ED090A4D
:1039400070EE800A60EE800AFCEEE00A10EE903A1B
:103950000381D1ED0B0A60EE800AFCEEE00A10EE66
:10396000903A4381D1ED070A9FED2A1A60EE810A51
:10397000FCEEE00A10EE903A8381274BB3F814C1B5
:10398000A0F80EC0B3F816310382D1ED0C0A70EE28
:10399000800A60EE800AFCEEE00A10EE903A438264
:1039A000D1ED0D0A70EE800A20EE800ABCEEC00A4E
:1039B00010EE103A83820023C38203834988418337
:1039C000838329465FF00603848B31F804CF54408B
:1039D00084834A8884EA0C0CA0F81CC05B1EF3D1D7
:1039E0006A8B1FFA8CF1514081830C4C00212046D8
:1039F000FCF772FF1E212046FDF73FF82046BDE888
:103A000070400121FCF768BF240100203400002031
:103A10000000C84200401C461C0200201C0002405E
:103A200010B584B001211020FFF780FB4720ADF8CE
:103A3000000000206321ADF808000D4CADF8020035
:103A40000191ADF80A006946204600F0EBF801222A
:103A50001146204600F0A2F80121204600F08CF823
:103A6000044B01220F213620FEF7F6FC04B010BDF6
:103A700000100040C5000010374882B0016841F4D2
:103A8000700101603548016841F001010160416841
:103A9000334A11404160016821F4102121F0807106
:103AA0000160016821F480210160C16A21F00F01E9
:103AB000C162016B2B4A11400163002282600192B6
:103AC0000092016841F480310160016841F4802175
:103AD0000160016801F4003100910199491C0191D4
:103AE000009919B90199B1F5A04FF2D1016811F40B
:103AF000003F08BF009209D001210091416821F4E4
:103B00007C114160416841F488114160164A1221DC
:103B100011604168416041684160416841F48061E1
:103B20004160016841F080710160016811F0007F1F
:103B3000FBD0416821F003014160416841F002017E
:103B40004160416801F00C010829FAD108060749D3
:103B5000086002B07047000088ED00E000100240ED
:103B60000CC0C008CCFEF0FF0020024008ED00E0D1
:103B7000C94389B2016170470029018814BF41F02F
:103B8000010121F00101018070470029416C14BF3F
:103B900041F40041C1F30E0141647047002AC2683C
:103BA00011BF1143C94389B21140C160704710B4BD
:103BB000026A22F480720262036A4268D0F81CC072
:103BC0000C682CF0730C44EA0C0C8C8923F4007301
:103BD00043EA04238C8843EA0423A0F18044B4F52B
:103BE00096341CBFA0F18044B4F59A3411D1CC892D
:103BF00023F4006343EA0423CC8823F4806343EA7C
:103C000004230C8A22F4405242EA04124C8A42EA0B
:103C100004124260C0F81CC08968C163036210BC12
:103C20007047000010B40288204BDFF884C098422F
:103C300018BF60450BD0B0F1804F1FBFA0F180448A
:103C4000B4F58064A0F18044B4F5006403D14C88DD
:103C500022F070022243A0F18044B4F580541CBFCE
:103C6000A0F18044B4F5A05403D00C8922F4407232
:103C7000224302804A68C2620A880285984218BFBD
:103C800060450DD0A0F18042B2F5A0321FBFA0F177
:103C90008042B2F5A232A0F18042B2F5A43201D145
:103CA000498901860121416110BC7047002C014007
:103CB0000034014010B5012188B00846FFF736FAFC
:103CC00000242548ADF800400190ADF80840ADF85B
:103CD0000240ADF80A4069464FF08040FFF7A2FF6E
:103CE000702003900120ADF8100042F227300590BB
:103CF000ADF81840ADF81C40ADF81240ADF81A40D0
:103D0000ADF81E4003A94FF08040FFF750FF01219E
:103D10008807FFF73AFF00214FF08040FFF72CFFA4
:103D200001212020FFF702FA4720ADF80000ADF88E
:103D30000840ADF80240ADF80A404FF6FF70074C5E
:103D4000019069462046FFF76DFF01212046FFF7ED
:103D500013FF08B010BD00003F190100001400401F
:103D60000029016814BF41F0010121F00101016047
:103D70007047002A826814BF114322EA0101816062
:103D8000704710B5A0F18041B1F59C311FD0A0F172
:103D90008041B1F5884125D0A0F18041B1F5904135
:103DA0002BD0A0F18041B1F5984131D0A0F18041F4
:103DB000B1F5A04118BF10BD01210805FFF7C2F9F8
:103DC000BDE8104000214FF48010FFF7BBB901217E
:103DD0008803FFF7CFF9BDE8104000214FF4804081
:103DE000FFF7C8B901214804FFF7ACF9BDE810405E
:103DF00000214FF40030FFF7A5B901218804FFF737
:103E0000A1F9BDE8104000214FF48020FFF79AB9D6
:103E10000121C804FFF796F9BDE8104000214FF4D6
:103E20000020FFF78FB930B50446006895B00D4605
:103E300020F0010020606068896820F44050084349
:103E400060602068EA68696820F4037011432A6999
:103E500020F4A050104308432060A068696920F452
:103E600040700843A0606846FFF790F9A4F18040D5
:103E7000B0F59C3008BF0C9914D0A4F18040B0F587
:103E8000884008BF0D990DD0A4F18040B0F5904056
:103E900008BF0E9906D0A4F18040B0F598400CBF41
:103EA0000F991099206810F4004F08D04A00296833
:103EB000B2FBF1F0B2FBF1F301FB132106E02A683B
:103EC000B1FBF2F0B1FBF2F302FB13112A68B1EB84
:103ED000520F216840F1000011F4004F05D0C0F3EB
:103EE00042014FF6F07210400843A08115B030BD7A
:103EF000F0B5012193B08804FFF718F901210846B5
:103F0000FFF7FCF8274E3046FFF73BFF00244FF445
:103F1000E130CDE90C040C20CDE910040E940F948F
:103F20000CA93046FFF77FFF1F4800901F48CDE9DE
:103F300001041620ADF80C008025CDE904452020B1
:103F40000694CDE907401A4F0994694638460A9409
:103F5000FCF76AFD01213846FCF7BEFC0122402136
:103F60003046FFF706FF13480090134801901020D9
:103F700002901E20ADF80C00CDE90445069407948C
:103F80000894099469460D480A94FCF74DFD0122F6
:103F900080213046FFF7EDFE01213046FFF7E0FEBD
:103FA00013B0F0BD00480040244800400E0100203E
:103FB0003000024028480040240100201C0002403C
:103FC0002DE9F041114E044604213046FCF701FE74
:103FD0000F4F002504F0800080284FF480513846B0
:103FE00011D0FCF7F6FD6006040E04213046FCF704
:103FF000F2FD04213046FCF7ECFD681CC5B2082D2B
:10400000E8D3BDE8F081FCF7E6FDECE7000C0048E2
:104010000008004802E008C8121F08C1002AFAD1AF
:1040200070477047002001E001C1121F002AFBD138
:1040300070470000FCF7D2FDFCF73AFAFCF720FDD0
:10404000FCF7D4FBFFF736FEFDF7B2FB6420FCF76C
:104050003BFDFFF74DFFFEF7EBFBFEF79FF9FFF788
:1040600005FCFEF7AFFEFDF7F1FE0F48FFF7D8FCA9
:104070000E4B012200210B20FEF7EEF90C4D0D4CEA
:10408000002600BFFDF7A0FC2888012804D12E805F
:10409000FEF796F9FCF72CFD2088012804BF268046
:1040A000FEF7F2F9EEE70000C50000106F01001006
:1040B0009600002098000020000000000000000092
:1040C00000000000000000000000000000000000F0
:1040D0000000000000000000000000002F000000B1
:1040E00000000000000000000000000000000000D0
:1040F00007000000000000000700000000000000B2
:1041000000000000140000007F0000001400000008
:104110007F000000140000000000000024000000E8
:104120002A0000007F0000002A00000012000000AA
:1041300000000000620000006400000008000000B1
:104140001300000023000000000000003600000003
:10415000490000005500000022000000500000004F
:104160000000000000000000050000000300000047
:10417000000000000000000000000000000000003F
:104180001C000000220000004100000000000000B0
:1041900000000000000000004100000022000000BC
:1041A0001C000000000000000000000014000000DF
:1041B000080000003E00000008000000140000009D
:1041C0000000000008000000080000003E000000A1
:1041D00008000000080000000000000000000000CF
:1041E00000000000A00000006000000000000000CF
:1041F00000000000080000000800000008000000A7
:10420000080000000800000000000000000000009E
:1042100060000000600000000000000000000000DE
:104220000000000020000000100000000800000056
:104230000400000002000000000000003E0000003A
:104240005100000049000000450000003E00000051
:104250000000000000000000420000007F0000009D
:1042600040000000000000000000000042000000CC
:1042700061000000510000004900000046000000FD
:104280000000000021000000410000004500000087
:104290004B0000003100000000000000180000008A
:1042A00014000000120000007F0000001000000059
:1042B000000000002700000045000000450000004D
:1042C0004500000039000000000000003C00000034
:1042D0004A000000490000004900000030000000D2
:1042E0000000000001000000710000000900000053
:1042F0000500000003000000000000003600000080
:10430000490000004900000049000000360000009C
:104310000000000006000000490000004900000005
:10432000290000001E000000000000000000000046
:104330003600000036000000000000000000000011
:1043400000000000000000005600000036000000E1
:104350000000000000000000000000000800000055
:1043600014000000220000004100000000000000D6
:104370000000000014000000140000001400000001
:104380001400000014000000000000000000000005
:10439000410000002200000014000000080000009E
:1043A00000000000020000000100000051000000B9
:1043B00009000000060000000000000032000000BC
:1043C0004900000059000000510000003E000000BC
:1043D000000000007C00000012000000110000003E
:1043E000120000007C000000000000007F000000C0
:1043F00049000000490000004900000036000000AC
:10440000000000003E0000004100000041000000EC
:104410004100000022000000000000007F000000BA
:104420004100000041000000220000001C000000CC
:10443000000000007F00000049000000490000006B
:104440004900000041000000000000007F00000063
:104450000900000009000000090000000100000040
:10446000000000003E000000410000004900000084
:10447000490000007A000000000000007F000000FA
:104480000800000008000000080000007F00000095
:104490000000000000000000410000007F0000005C
:1044A00041000000000000000000000020000000AB
:1044B00040000000410000003F000000010000003B
:1044C000000000007F000000080000001400000051
:1044D0002200000041000000000000007F000000FA
:1044E00040000000400000004000000040000000CC
:1044F000000000007F000000020000000C0000002F
:10450000020000007F000000000000007F000000AB
:104510000400000008000000100000007F00000000
:10452000000000003E0000004100000041000000CB
:10453000410000003E000000000000007F0000007D
:10454000090000000900000009000000060000004A
:10455000000000003E00000041000000510000008B
:10456000210000005E000000000000007F0000004D
:1045700009000000190000002900000046000000AA
:104580000000000046000000490000004900000053
:1045900049000000310000000000000001000000A0
:1045A000010000007F000000010000000100000089
:1045B000000000003F00000040000000400000003C
:1045C000400000003F000000000000001F0000004D
:1045D0002000000040000000200000001F0000003C
:1045E000000000003F000000400000003800000014
:1045F000400000003F0000000000000063000000D9
:104600001400000008000000140000006300000017
:10461000000000000700000008000000700000001B
:10462000080000000700000000000000610000001A
:104630005100000049000000450000004300000058
:1046400000000000000000007F00000041000000AA
:1046500041000000000000000000000055000000C4
:104660002A000000550000002A000000550000004C
:1046700000000000000000004100000041000000B8
:104680007F000000000000000000000004000000A7
:104690000200000001000000020000000400000011
:1046A000000000004000000040000000400000004A
:1046B000400000004000000000000000000000007A
:1046C00001000000020000000400000000000000E3
:1046D0000000000020000000540000005400000012
:1046E0005400000078000000000000007F0000007F
:1046F00048000000440000004400000038000000B2
:1047000000000000380000004400000044000000E9
:1047100044000000200000000000000038000000FD
:104720004400000044000000480000007F0000003A
:104730000000000038000000540000005400000099
:1047400054000000180000000000000008000000F5
:104750007E000000090000000100000002000000CF
:104760000000000018000000A4000000A4000000E9
:10477000A40000007C000000000000007F0000009A
:1047800008000000040000000400000078000000A1
:104790000000000000000000440000007D00000058
:1047A0004000000000000000000000004000000089
:1047B00080000000840000007D0000000000000078
:1047C000000000007F000000100000002800000032
:1047D0004400000000000000000000000000000095
:1047E000410000007F0000004000000000000000C9
:1047F000000000007C000000040000001800000021
:104800000400000078000000000000007C000000B0
:104810000800000004000000040000007800000010
:1048200000000000380000004400000044000000C8
:10483000440000003800000000000000FC00000000
:1048400024000000240000002400000018000000E4
:1048500000000000180000002400000024000000F8
:1048600018000000FC000000000000007C000000B8
:104870000800000004000000040000000800000020
:104880000000000048000000540000005400000038
:1048900054000000200000000000000004000000A0
:1048A0003F00000044000000400000002000000025
:1048B000000000003C00000040000000400000003C
:1048C000200000007C000000000000001C00000030
:1048D0002000000040000000200000001C0000003C
:1048E000000000003C00000040000000300000001C
:1048F000400000003C0000000000000044000000F8
:104900002800000010000000280000004400000003
:10491000000000001C000000A0000000A00000003B
:10492000A00000007C000000000000004400000027
:1049300064000000540000004C000000440000002F
:104940001400000014000000140000001400000017
:10495000140000001400000000000000000000002F
:104960000000000000000000000000000000000047
:104970000000000000000000000000000000000037
:104980000000000000000000000000000000000027
:104990000000000000000000000000000000000017
:1049A00000000000F800000000000000000000000F
:1049B00000000000000000000000000000000000F7
:1049C0000000000033000000300000000000000084
:1049D00000000000000000000000000010000000C7
:1049E0000C00000006000000100000000C00000099
:1049F00006000000000000000000000000000000B1
:104A000000000000000000000000000000000000A6
:104A1000000000000000000040000000C000000096
:104A20007800000040000000C00000007800000096
:104A30004000000000000000040000003F000000F3
:104A400004000000040000003F000000040000001B
:104A500004000000000000000000000070000000E2
:104A600088000000FC00000008000000300000008A
:104A7000000000000000000000000000180000001E
:104A800020000000FF000000210000001E000000C8
:104A90000000000000000000F0000000080000001E
:104AA000F000000000000000E0000000180000001E
:104AB00000000000000000000000000021000000D5
:104AC0001C000000030000001E0000002100000088
:104AD0001E0000000000000000000000F0000000C8
:104AE00008000000880000007000000000000000C6
:104AF00000000000000000001E0000002100000077
:104B0000230000002400000019000000270000001E
:104B1000210000001000000010000000160000003E
:104B20000E00000000000000000000000000000077
:104B30000000000000000000000000000000000075
:104B40000000000000000000000000000000000065
:104B50000000000000000000000000000000000055
:104B600000000000E0000000180000000400000049
:104B70000200000000000000000000000000000033
:104B800000000000070000001800000020000000E6
:104B900040000000000000000000000002000000D3
:104BA0000400000018000000E00000000000000009
:104BB00000000000000000000000000040000000B5
:104BC00020000000180000000700000000000000A6
:104BD0000000000000000000400000004000000055
:104BE00080000000F0000000800000004000000095
:104BF0004000000000000000020000000200000071
:104C0000010000000F000000010000000200000091
:104C10000200000000000000000000000000000092
:104C200000000000F0000000000000000000000094
:104C30000000000000000000010000000100000072
:104C4000010000001F000000010000000100000042
:104C50000100000000000000000000000000000053
:104C60000000000000000000000000000000000044
:104C7000000000000000000080000000B000000004
:104C800070000000000000000000000000000000B4
:104C90000000000000000000000000000000000014
:104CA0000000000000000000000000000000000004
:104CB00000000000000000000000000001000000F3
:104CC00001000000010000000100000001000000E0
:104CD00001000000010000000000000000000000D2
:104CE00000000000000000000000000000000000C4
:104CF0000000000000000000000000003000000084
:104D00003000000000000000000000000000000073
:104D10000000000000000000000000000000000093
:104D200000000000000000008000000060000000A3
:104D300018000000040000000000000060000000F7
:104D40001800000006000000010000000000000044
:104D5000000000000000000000000000E000000073
:104D60001000000008000000080000001000000013
:104D7000E000000000000000000000000F00000044
:104D800010000000200000002000000010000000C3
:104D90000F000000000000000000000010000000F4
:104DA00010000000F80000000000000000000000FB
:104DB00000000000000000000000000020000000D3
:104DC000200000003F000000200000002000000044
:104DD0000000000000000000000000007000000063
:104DE0000800000008000000080000008800000023
:104DF0007000000000000000000000003000000013
:104E00002800000024000000220000002100000013
:104E10003000000000000000000000003000000032
:104E20000800000088000000880000004800000022
:104E3000300000000000000000000000180000002A
:104E400020000000200000002000000011000000F1
:104E50000E00000000000000000000000000000044
:104E6000C00000002000000010000000F80000005A
:104E7000000000000000000000000000070000002B
:104E80000400000024000000240000003F00000097
:104E9000240000000000000000000000F8000000F6
:104EA00008000000880000008800000008000000E2
:104EB00008000000000000000000000019000000D1
:104EC0002100000020000000200000001100000070
:104ED0000E0000000000000000000000E0000000E4
:104EE000100000008800000088000000180000008A
:104EF0000000000000000000000000000F000000A3
:104F0000110000002000000020000000110000003F
:104F10000E0000000000000000000000380000004B
:104F20000800000008000000C80000003800000071
:104F30000800000000000000000000000000000069
:104F4000000000003F000000000000000000000022
:104F500000000000000000000000000070000000E1
:104F60008800000008000000080000008800000021
:104F70007000000000000000000000001C000000A5
:104F8000220000002100000021000000220000009B
:104F90001C0000000000000000000000E000000015
:104FA00010000000080000000800000010000000D1
:104FB000E000000000000000000000000000000011
:104FC000310000002200000022000000110000005B
:104FD0000F000000000000000000000000000000C2
:104FE00000000000C0000000C00000000000000041
:104FF00000000000000000000000000000000000B1
:105000000000000030000000300000000000000040
:105010000000000000000000000000000000000090
:105020000000000080000000000000000000000000
:105030000000000000000000000000000000000070
:105040008000000060000000000000000000000080
:105050000000000000000000000000000000000050
:105060008000000040000000200000001000000050
:105070000800000000000000000000000100000027
:105080000200000004000000080000001000000002
:105090002000000000000000400000004000000070
:1050A0004000000040000000400000004000000000
:1050B00040000000000000000400000004000000A8
:1050C00004000000040000000400000004000000D0
:1050D00004000000000000000000000008000000C4
:1050E00010000000200000004000000080000000D0
:1050F0000000000000000000000000002000000090
:105100001000000008000000040000000200000081
:10511000010000000000000000000000700000001E
:10512000480000000800000008000000080000001F
:10513000F00000000000000000000000000000007F
:1051400000000000300000003600000001000000F8
:105150000000000000000000C0000000300000005F
:10516000C800000028000000E80000001000000057
:10517000E000000000000000070000001800000030
:10518000270000002400000023000000140000009D
:105190000B00000000000000000000000000000004
:1051A000C000000038000000E00000000000000027
:1051B0000000000000000000200000003C00000093
:1051C0002300000002000000020000002700000091
:1051D000380000002000000008000000F800000077
:1051E00088000000880000008800000070000000B7
:1051F0000000000000000000200000003F00000050
:10520000200000002000000020000000110000002D
:105210000E00000000000000C00000003000000090
:10522000080000000800000008000000080000005E
:105230003800000000000000070000001800000017
:1052400020000000200000002000000010000000EE
:10525000080000000000000008000000F800000046
:105260000800000008000000080000001000000016
:10527000E000000000000000200000003F000000EF
:1052800020000000200000002000000010000000AE
:105290000F0000000000000008000000F8000000FF
:1052A0008800000088000000E800000008000000FE
:1052B0001000000000000000200000003F0000007F
:1052C000200000002000000023000000200000005B
:1052D000180000000000000008000000F8000000B6
:1052E0008800000088000000E800000008000000BE
:1052F0001000000000000000200000003F0000003F
:10530000200000000000000003000000000000007A
:105310000000000000000000C0000000300000009D
:10532000080000000800000008000000380000002D
:10533000000000000000000007000000180000004E
:105340002000000020000000220000001E000000DD
:10535000020000000000000008000000F80000004B
:10536000080000000000000000000000080000002D
:10537000F800000008000000200000003F000000CE
:1053800021000000010000000100000021000000D9
:105390003F000000200000000000000008000000A6
:1053A00008000000F80000000800000008000000ED
:1053B00000000000000000000000000020000000CD
:1053C000200000003F00000020000000200000003E
:1053D00000000000000000000000000000000000CD
:1053E0000800000008000000F800000008000000AD
:1053F0000800000000000000C00000008000000065
:1054000080000000800000007F000000000000001D
:10541000000000000000000008000000F80000008C
:1054200088000000C00000002800000018000000F4
:105430000800000000000000200000003F00000005
:1054400020000000010000002600000038000000DD
:10545000200000000000000008000000F80000002C
:105460000800000000000000000000000000000034
:105470000000000000000000200000003F000000CD
:10548000200000002000000020000000200000009C
:10549000300000000000000008000000F8000000DC
:1054A000F800000000000000F8000000F800000014
:1054B0000800000000000000200000003F00000085
:1054C000000000003F000000000000003F0000005E
:1054D000200000000000000008000000F8000000AC
:1054E00030000000C00000000000000008000000C4
:1054F000F800000008000000200000003F0000004D
:10550000200000000000000007000000180000005C
:105510003F00000000000000E0000000100000005C
:105520000800000008000000080000001000000053
:10553000E0000000000000000F000000100000006C
:1055400020000000200000002000000010000000EB
:105550000F0000000000000008000000F80000003C
:10556000080000000800000008000000080000001B
:10557000F000000000000000200000003F000000DC
:1055800021000000010000000100000001000000F7
:105590000000000000000000E0000000100000001B
:1055A00008000000080000000800000010000000D3
:1055B000E0000000000000000F00000018000000E4
:1055C000240000002400000038000000500000000B
:1055D0004F0000000000000008000000F80000007C
:1055E000880000008800000088000000880000009B
:1055F0007000000000000000200000003F000000DC
:105600002000000000000000030000000C0000006B
:1056100030000000200000000000000070000000CA
:1056200088000000080000000800000008000000DA
:1056300038000000000000000000000038000000FA
:1056400020000000210000002100000022000000D6
:105650001C0000000000000018000000080000000E
:1056600008000000F800000008000000080000002A
:105670001800000000000000000000000000000012
:10568000200000003F00000020000000000000009B
:10569000000000000000000008000000F80000000A
:1056A00008000000000000000000000008000000EA
:1056B000F800000008000000000000001F000000CB
:1056C000200000002000000020000000200000005A
:1056D0001F0000000000000008000000780000002B
:1056E000880000000000000000000000C80000006A
:1056F000380000000800000000000000000000006A
:1057000007000000380000000E000000010000004B
:105710000000000000000000F80000000800000089
:1057200000000000F8000000000000000800000079
:10573000F800000000000000030000003C00000032
:105740000700000000000000070000003C0000000F
:105750000300000000000000080000001800000026
:105760006800000080000000800000006800000069
:1057700018000000080000002000000030000000B9
:105780002C00000003000000030000002C000000BB
:105790003000000020000000080000003800000079
:1057A000C800000000000000C80000003800000031
:1057B00008000000000000000000000000000000E1
:1057C000200000003F00000020000000000000005A
:1057D00000000000000000001000000008000000B1
:1057E0000800000008000000C800000038000000A9
:1057F0000800000000000000200000003800000049
:105800002600000021000000200000002000000011
:105810001800000000000000000000000000000070
:1058200000000000FE000000020000000200000076
:105830000200000000000000000000000000000066
:10584000000000007F000000400000004000000059
:105850004000000000000000000000000C000000FC
:1058600030000000C0000000000000000000000048
:105870000000000000000000000000000000000028
:1058800000000000010000000600000038000000D9
:10589000C000000000000000000000000200000046
:1058A0000200000002000000FE00000000000000F6
:1058B00000000000000000000000000040000000A8
:1058C00040000000400000007F00000000000000D9
:1058D00000000000000000000000000000000000C8
:1058E00004000000020000000200000002000000AE
:1058F00004000000000000000000000000000000A4
:105900000000000000000000000000000000000097
:105910000000000000000000000000000000000087
:105920000000000000000000000000000000000077
:105930000000000000000000800000008000000067
:105940008000000080000000800000008000000057
:105950008000000080000000000000000200000045
:105960000200000004000000000000000000000031
:105970000000000000000000000000000000000027
:105980000000000000000000000000000000000017
:105990000000000000000000000000000000000007
:1059A00080000000800000008000000080000000F7
:1059B00000000000000000000000000019000000CE
:1059C000240000002200000022000000220000004D
:1059D0003F0000002000000008000000F800000068
:1059E00000000000800000008000000000000000B7
:1059F0000000000000000000000000003F00000068
:105A00001100000020000000200000001100000034
:105A10000E00000000000000000000000000000078
:105A200000000000800000008000000080000000F6
:105A30000000000000000000000000000E00000058
:105A400011000000200000002000000020000000E5
:105A50001100000000000000000000000000000035
:105A600000000000800000008000000088000000AE
:105A7000F800000000000000000000000E00000020
:105A800011000000200000002000000010000000B5
:105A90003F000000200000000000000000000000A7
:105AA00080000000800000008000000080000000F6
:105AB0000000000000000000000000001F000000C7
:105AC000220000002200000022000000220000004E
:105AD0001300000000000000000000008000000033
